:1000000002308A006A2A000049376739E5396510ED
:10001000753761006F38E3346F37000153366F3A3C
:1000200073106C366537EF390001C337EC37F13A9E
:100030006510F33A203265326F0073366F3AA012C2
:10004000641D2000CE3A653BE1366537F43200018D
:100050006539F2377200D232E734733AF230E4375E
:100060000001C337EC37F13A6510F33A20326532BC
:100070006F00C131E332F3370001C131E332F337AE
:1000800020326537E53361326F00603084008313BE
:100090000008031959280130F800F701F70B4E2822
:1000A000F80B4D284A30F700F70B54285728800BDF
:1000B0004B280800670EF039F7000F30060577046B
:1000C0008600000006146428061008000608F700E1
:1000D000060E0F39F8000800831606108610061168
:1000E000831286100F3083160605F03886008312BF
:1000F000061500000614000066207808E7000610C8
:1001000000000614000066207808E60006100F3094
:100110008316060586008312670EF700F030F70598
:1001200077086604F8007808E600E61B7228641C6D
:100130008610641886140000061100000610650E73
:10014000E6000F30E6056608E7005A2065080F391B
:10015000E600E7005A2008002830D9000C30DA0009
:100160000130DB000630DC000610861006110F306F
:100170008316060586000610861006110F308312BE
:10018000E00045200130D8005808033C031CD0286B
:100190000330E7005A200530E0004520D80AC42883
:1001A0000230E7005A200530E0004520D801580809
:1001B000033C031CE72859305807840083130008C8
:1001C000DD00E4015D08E5006C20D80AD7288A111B
:1001D0000A12952A610BED28F0284030E200F12840
:1001E000E20101306002E20762088038E300E401C6
:1001F0006308E5006C2008005F08073A03190A2924
:100200000B3A03190F29063A03191729023A031961
:100210001D2922290130E000E100EA202729E4011C
:100220000130E5006C200230E00045202729013034
:10023000E0000230E100EA202729E4011030E50067
:100240006C2027290130E4005F08E5006C200800DD
:100250000B08D8008B13831603178C170C1400009F
:10026000000083120313D81B8B1703170C087F3968
:1002700003197C290313D80003170D080313D900B1
:1002800003170F080313DA005808DF00FC20590891
:1002900003178D0003135A0803178F0003130B086D
:1002A000DB008B13831603178C170C14000000005F
:1002B00083120313DB1B8B1703170C0D0E0D7F39F5
:1002C00003197C290313D80003170D080313D90061
:1002D00003170F080313DA005808DF00FC20590841
:1002E00003178D0003135A0803178F008D0A031993
:1002F0008F0A031328290317031308000B08DA00D9
:100300008B13831603178C170C1400000000831244
:100310000313DA1B8B170318B52903170C087F3951
:100320000313DA0003170D080313DB0003170F088C
:100330000313DC005A08DF00FC205B0803178D0064
:1003400003135C0803178F0003130B08DD008B13E6
:10035000831603178C170C1400000000831203137C
:10036000DD1B8B17D90BB529D42903170C0D0E0DE6
:100370007F390313DA0003170D080313DB0003179B
:100380000F080313DC005A08DF00FC205B0803178A
:100390008D0003135C0803178F008D0A03198F0A61
:1003A00003100313D90B7E298A110A12422B60080D
:1003B000F8015F020318DF295F08F700EB29F70156
:1003C0000830E100DF0DF70D600877020318F70031
:1003D000F80DE10BE229080020305A1E3030DB0016
:1003E0005908F700D91FFC29F709F70A7708D9003F
:1003F0002D30DB00DA175A145908DF006430E000B2
:10040000D7217708D90030307807DC005908DF00A1
:100410000A30E000D72130307707DE00303078072F
:10042000DD005B08F70030305C0203191B2ADA1488
:10043000DA1B5A152F2A5B08DC002030DB00303035
:100440005D020319272A5A14DA1BDA142F2A031D16
:100450005A14031D2F2A5C08DD002030DC005A19D5
:10046000362ADA18392A5A183C2A3F2A5B08DF0054
:10047000FC205C08DF00FC205D08DF00FC205E083B
:10048000DF00FC208A110A12472BF701F8015808F7
:1004900003105918F707F70CF80CD918F707F70CE1
:1004A000F80C5919F707F70CF80CD919F707F70CDE
:1004B000F80C591AF707F70CF80CD91AF707F70CCC
:1004C000F80C591BF707F70CF80CD91BF707F70CBA
:1004D000F80C080003081F398300FF30A400A4159E
:1004E00024088316870083122416240883168700A5
:1004F000A0309300363083129400831611141F1419
:100500009F141F159F1107309C0083138312A001B5
:100510002110A201A30183168501FF3083128500FB
:10052000A601A701D101D201AC280C30DF00FC20CC
:10053000043003178D0000308F0003132821023090
:10054000E000E100EA200A3003178D0000308F0040
:1005500003132821A708031DBF2A8316051483123D
:10056000051CB52A0130A600A70083168514831246
:10057000851CBE2A0230A6000130A700AA2AA701C6
:100580000C30DF00FC20260BDB2A5108043C03184A
:10059000DB2A0C30DF00FC200E3003178D0000300A
:1005A0008F00031328210430D800FA30E0004520E2
:1005B000D80BD52AA601260B102C260BFC2B0C30B1
:1005C000DF00FC20153003178D0000308F0003136F
:1005D00028210230E000E100EA20A7015208033C94
:1005E000031C5B2B8316141C592B831214138C1DB4
:1005F000F72A13081416A50025082A3C031D032B0F
:100600000130A700582B2508313C03192B2B250856
:10061000323C03192B2B2508333C03192B2B2508BF
:10062000343C03192B2B2508353C03192B2B2508AB
:10063000363C03192B2B2508373C03192B2B250897
:10064000383C03192B2B2508393C03192B2B250883
:10065000303C031D582B413052078400831325087A
:1006600080000230E000E100EA2001305107D800AC
:100670001D3003178D0000308F0003100530031369
:10068000D9007E295808D9001830DA00EC293A3010
:10069000DF00FC202030DF00FC200A305207D800A9
:1006A000E0000230E100EA202508DF00FC20D20A49
:1006B00083168312EE2A0C30DF00FC202230031751
:1006C0008D0000308F00031328210230E000E1008C
:1006D000EA20D201A7015208033C031CC82B831651
:1006E000141CC62B831214138C1D742B13081416A0
:1006F000A50025082A3C031D802B0130A700C52B2F
:100700002508313C0319A82B2508323C0319A82BD6
:100710002508333C0319A82B2508343C0319A82BC2
:100720002508353C0319A82B2508363C0319A82BAE
:100730002508373C0319A82B2508383C0319A82B9A
:100740002508393C0319A82B2508303C031DC52B6F
:100750005108D8000530D900452252087807283EB4
:10076000F800FA010318FA0A49305207840083138B
:10077000250880007808840083137A1883172508D9
:100780008000D20A2508DF00FC20831683126B2B21
:10079000D301D4015408033C031CDE2B4130540721
:1007A000840083130008D800493054078400831361
:1007B00000085802031DD30AD40ACA2BD308031910
:1007C000F52BD201D3010C30DF00FC2028300317B9
:1007D0008D0000308F00031328210230D800FA303A
:1007E000E0004520D80BEF2BFB2BD201D10A0C30B7
:1007F000DF00FC20A601DD2AA701A6012B3003178C
:100800008D0000308F00031328210230D800FA3009
:10081000E0004520D80B072C0C30DF00FC20BA2C60
:100820002608023C031DBA2CD501D201D101520881
:10083000033C031CBA2C0C30DF00FC2031300317C2
:100840008D0000308F00031328210230E000E1000A
:10085000EA205208033C031C732C8316141C712CD1
:10086000831214138C1D322C13081416A5002508AE
:100870002A3C031D3E2C0130A700702C2508313C7A
:100880000319662C2508323C0319662C2508333CD5
:100890000319662C2508343C0319662C2508353CC1
:1008A0000319662C2508363C0319662C2508373CAD
:1008B0000319662C2508383C0319662C2508393C99
:1008C0000319662C2508303C031D702C4930520753
:1008D0008400831325088000D20A2508DF00FC204D
:1008E00083168312292CD6015608043C031C952C30
:1008F000D7015708033C031C932C5608D800053039
:10090000D900452257087807283E84008313000841
:10091000D800493057078400831300085802031990
:10092000D50AD70A792CD60A742C0C30DF00FC20AB
:100930005508043C031DAB2C393003178D000030E3
:100940008F00031328210430D800FA30E00045203E
:10095000D80BA52CB92C3D3003178D0000308F002B
:10096000031328210430D800FA30E0004520D80BCA
:08097000B42C172C952A63003A
:02400E00713F00
:00000001FF
;PIC16F876A
;CRC=6966  CREATED="24-nov.-20 00:20"
